:100000000C947A040C94EC040C94EC040C94EC0422
:100010000C94EC040C9400320C94EC040C94BC3260
:100020000C94EC040C94EC040C94EC040C94EC0490
:100030000C94EC040C94A8330C94EC040C94EC0495
:100040000C94EC040C94EC040C94EC040C94EC0470
:100050000C94EC040C94EC040C94EC040C943233EB
:100060000C94EC040C94203F0C94EC040C949B3FF7
:100070000C94EC040C94EC040C94EC040C94EC0440
:100080000C94EC040C94EC040C94EC040C94EC0430
:100090000C9415400C94EC040C9490400C94A63EE7
:1000A0000C94EC040C94EC040C94EC040C94EC0410
:1000B0000C94EC040C94EC040C94EC040C94EC0400
:1000C0000C94EC040C94EC040C94EC0423356C3587
:1000D000B335D935ED3515361D3642362035643603
:1000E000AB36B136B736BD36DA36C336DA36103708
:1000F000E536FA36596573212C2049276D20616C4D
:10010000697665202E2E2E205B25645D00525443B7
:100110002074696D65205B253032643A2530326485
:100120003A253032645D0048656C6C6F20576F7201
:100130006C640077007561727430000A000A234411
:100140006562756720000A23496E666F2020000AE9
:10015000234E6F74696320000A235761726E20205A
:10016000000A23457272202020000A23437269741A
:100170002020000A23416C65727420000A23456D1B
:1001800065726720003F3F203C444D4B3E200057A6
:10019000443A200056533A200056453A2000555420
:1001A0003A200055443A200055413A200053523A33
:1001B000200053503A200053473A200053453A203C
:1001C0000053543A200052543A200052433A20003F
:1001D000504C3A200050413A20004D443A20004D06
:1001E0004D3A20004D453A200053593A20004C47E3
:1001F0003A20004C453A20004B423A2000494E3A02
:10020000200048543A2000464C3A200046413A200B
:100210000044503A2000434D3A200043483A200021
:1002200041553A200030803000170780B0173C0657
:10023000001750003F24000600162012008F5700C0
:1002400000CE101229009900004D0080404C180685
:1002500000D7960028550D0000480D0600505B0998
:1002600030420080B00180144240BC182840C713BF
:1002700036423C003E03B81400031B1500C259D699
:100280006F2400003603981228D55700004D000057
:1002900028402BF33624004C80103E1438103E0AC0
:1002A00078133E0DB8033E05F80600955509301544
:1002B000141B00D4FF0300CEFF01000A000024CE6F
:1002C000168AB5240092F200945261240002FE24A2
:1002D00000B24824004A4501B6F33605D8F3360D7E
:1002E00098F0360A5800200000F036141861801388
:1002F000362400123E17B8123E1538053E14B825B4
:1003000036240000000A80103E03B8944105B8115D
:100310003E2400113E07B8143E1278143E0DF80337
:100320003E0EF8060051000028D524000024008865
:10033000B812000464050400002400002858219429
:100340004024000024022100002400986403085681
:10035000FE2400B6482400D64D2400103A24C0F0F4
:100360003224C056FE2400B6482400D64D24008412
:1003700043834496638C8800F4D540003D24800676
:100380000091003F00C3FE0600530001312480604D
:10039000FE2400BE48240034A6030C244324008419
:1003A00042022C060011000028D8240031248006C7
:1003B000001150003924800600110000314C98844F
:1003C000424C9000F488400028452800002400F0AA
:1003D0003C40380930413809301038002000000016
:1003E0000088270930D01B002880280930811BF3A2
:1003F00034CC1BF3360ED8F4360DD8F4361258F13F
:10040000360798F1360518F036039805341490F342
:10041000362400F236151800200000F2361798AD89
:1004200080123E17B8123E1538053E14B815362412
:100430000000000A80103E0278103E04F8113E10C1
:1004400078143E1278132980C9143E24C0132980E1
:10045000C988404C1800F405400000C0180064240E
:10046000000000C01B0028953030001003002880D9
:100470003F01382440006424000000401A00285541
:10048000370600D0550000037D84B84C18093005AC
:1004900038093000008AFF24001D29007BB248245F
:1004A0000000004118060010508A4044B80029009E
:1004B00013884024000030CC1B146024003000510D
:1004C000030028D536000024000600110000312466
:1004D0000030005103003824000028803F013924F7
:1004E00040006424003000D0030028553F00000382
:1004F0007D0600D05584B84C180930053809300005
:10050000008AFF24001D29007BB24824008A40CCC9
:100510009B000041180028553B060010509A6824A3
:10052000000030240014602400300092030028856D
:100530003E0600910006001100000052180600530C
:100540000080B80024060091000438248030009216
:1005500003003B2400013924400028803F013A2455
:10056000400138244080B8D31BF4361258F13610BD
:1005700058F03604D8F036025805341490F3362477
:1005800000F236151800200000F2361798300000EF
:10059000000000457869740000000053EF6E000011
:1005A00000004578697453EF6E4DEA6D5400000009
:1005B00000070606060606060606060606060606E0
:1005C00006060606060606060606060606060606CB
:1005D00006060606060606060606060606060606BB
:1005E00006060606060606060606070606060606AA
:1005F000060606060606060606060606060606069B
:10060000060606060606060606060606060606068A
:100610000606060606070606060606060606060679
:10062000060606060606060606060606060606066A
:10063000060606060606060606060606060606065A
:10064000060606060606060606060606060606064A
:10065000060606060606060606060606060606063A
:10066000060606060606060606060606060606062A
:10067000060606060606060606060606060606061A
:10068000060606060606060606060606060606060A
:1006900006060606060606060606060606060606FA
:1006A00006060606060606060606060606060706E9
:1006B00006060606060606060606060606060606DA
:1006C00006060606060606060606060606060606CA
:1006D00006060606060606060606060606060606BA
:1006E00006060606060606060606060606060606AA
:1006F000060606060606060606060606060606069A
:100700000606060606060606060606060606060689
:100710000606060606060606060606060606060679
:100720000606060606060606060606060606060669
:100730000606060606060606060606060606060659
:100740000606060606060606060606060606060649
:100750000606060606060606060606060606060639
:1007600006060606060654687265616420666169BD
:100770006C6564004361726450726573004361721A
:10078000642072656D6F76656400436172642069F0
:100790006E736572746564004572726F7220696E63
:1007A000697469616C6973696E672046696C65205C
:1007B00073797374656D20616E6420436172642D7A
:1007C0006472697665720043617264206D6F756E44
:1007D00074656400696E76616C6964205370656548
:1007E00064006572726F7220647572696E6720436F
:1007F00053442072656164000000000000000000A6
:1008000000000000000000000000000000000000E8
:1008100000000000000000000000000000000000D8
:1008200000000000000000000000000000000000C8
:1008300000000000000000000000000000000000B8
:1008400000000000000000000000000000000000A8
:100850000000000000000000000000000000000098
:100860000000000000000000000000000000000088
:100870000000000000000000000000000000000078
:100880000000000000000000000000000000000068
:100890000000000000000000000000000000000058
:1008A0000000000000000000000000000000000048
:1008B0000000000000000000000000000000000038
:1008C0000000000000000000000000000000000028
:1008D0000000000000000000000000000000000018
:1008E0000000000000000000000000000000000008
:1008F0000000000084E880937400479A3F9A469A6B
:100900003E9A81EE809300C380E4809301C385B753
:100910008F7785BF80E090E0359B05C0019641F060
:10092000359BF8CFFBCF019619F03599F3CFFBCF6C
:1009300085B7806885BF47983F9846983E9887E07E
:100940008093C4008093CC0011241FBECFEFD1E26E
:10095000DEBFCDBF13E0A0E0B2E0EAEDFFE800E0CB
:100960000BBF02C007900D92AA38B107D9F717E064
:10097000AAE8B3E001C01D92A431B107E1F78FEFFF
:100980009FE79EBF8DBF8FEF9FE7845197408158AF
:10099000914040F06FEF7EE76451774084E197E04B
:1009A0000E948E260E94512F892B41F064EC72E048
:1009B0008AEF96E00E944A470E94382F20E831E0F3
:1009C00040E050E065E875E28DEC92E00E948030F6
:1009D0000E9400000C94EC470C94000087EF84B94F
:1009E0008CE08AB98BB18C70836F8BB98EE88DB92E
:1009F0008EB18E7881608EB985B7806885BF85B7E6
:100A0000806885BF8EE080BB81B38E70816F81BBB3
:100A100088E183BB08950F931F93CF93DF93CDB7E6
:100A2000DEB767970FB6F894DEBF0FBECDBF84E484
:100A3000898389E48A8383E48B838BE48C8383E5D5
:100A40008D830E941C0E84E60E947C2A0E94EE0484
:100A50000E94BE0F0E9494080E940D0A0E94430645
:100A60000E94F7050E946E0887E291E09F938F93A2
:100A700016EC1F930E942E070E94A20E0E94462190
:100A8000CE0106960E9462210F900F900F90892B45
:100A9000D9F48E819F819F938F93888599859F93A9
:100AA0008F938A859B859F938F938DE091E09F9391
:100AB0008F931F930E942E078DB79EB709960FB68E
:100AC000F8949EBF0FBE8DBF0E941A1F0E94AE0DEC
:100AD0000E946A0940E050E06CEB75E084EE92E021
:100AE0000E947B2F892B49F485B5846085BDA89A27
:100AF00080916E00816080936E0081E00E94B22937
:100B0000789464E670E080E090E00E948E2B01E033
:100B100010E01F930F9384EF90E09F938F9386ECE8
:100B20008F930E942E0784E00E9474080E944D0952
:100B30000F900F900F900F900F908D3041F465E063
:100B400070E0CE0101960E94F20981E001C080E0D0
:100B50000E94AE090E941A0E64E670E080E090E008
:100B60000E948E2BC80165E070E00E9490470F5FE5
:100B70001F4F892B79F7CDCF0E949C080E94490E08
:100B8000089580918A0390918B03089580918A0340
:100B900090918B03009731F00E94364110928B03A5
:100BA00010928A030895CF93DF93CDB7DEB72497D1
:100BB0000FB6F894DEBF0FBECDBF69837A838B83F7
:100BC0009C8380918A0390918B030E948741AE01A0
:100BD0004F5F5F4F63E171E00E94CC4024960FB6F7
:100BE000F894DEBF0FBECDBFDF91CF910895EF9295
:100BF000FF920F931F93CF93DF93CDB7DEB72D975F
:100C00000FB6F894DEBF0FBECDBF80E092ECA1E03E
:100C1000B0E08C839D83AE83BF8388E0E82EF12C07
:100C2000EC0EFD1E65E371E0C7010E94FC4663E324
:100C300071E08E010F5F1F4FC8010E94FC4640917A
:100C4000330350913403B801C7010E94E7419093E8
:100C50008B0380938A03009749F00E948741AE017D
:100C60004C5F5F4F61E071E00E94CC402D960FB663
:100C7000F894DEBF0FBECDBFDF91CF911F910F91D2
:100C8000FF90EF90089510928B0310928A0340E03A
:100C900060E070E080EF92E00E940C2F0895909148
:100CA0008C03883010F480938C03892F9927089542
:100CB0002F923F924F925F926F927F928F929F926C
:100CC000AF92BF92CF92DF92EF92FF920F931F935A
:100CD000CF93DF93CDB7DEB7CD54D0400FB6F894A5
:100CE000DEBF0FBECDBF7C016B011A01892B09F459
:100CF0008EC094E0692E712C44245524AA24BB2470
:100D0000A0E0B0E000E010E07EC0C5018F70907000
:100D1000892B69F54DE450E060E270E08E010F5FD1
:100D20001F4FC8010E942F479301220F331F220F2C
:100D3000331F2450304040E050E0D801F201022E31
:100D400002C0F695E7950A94E2F7EF70F070E05074
:100D5000FE4F80818D934F5F5F4F2450304046158A
:100D6000570561F7D301129683010C5C1F4FF60102
:100D70009081E92FE295EF70FF27E050FE4F508100
:100D80004D010894811C911CE92FFF27EF70F07032
:100D9000E050FE4F4081892F80528F3510F08EE257
:100DA00001C0892F9E012F5F3F4FA20FB31F5C939D
:100DB000F901E80DF91D4083F901E00FF11F80836F
:100DC0000F5F1F4F0894A11CB11CC5018F7090705C
:100DD000892B19F0A214B30489F4F901E00FF11F73
:100DE0001082B701C9010E947A42B7018AE090E0FF
:100DF0000E94524280E190E0480E591E0894C11CA6
:100E0000D11CD4011296A214B30409F07ECFC35BA7
:100E1000DF4F0FB6F894DEBF0FBECDBFDF91CF918D
:100E20001F910F91FF90EF90DF90CF90BF90AF9008
:100E30009F908F907F906F905F904F903F902F90FA
:100E4000089560918D0370918E036115710529F0ED
:100E5000992787FD90950E94524208951F93CF9342
:100E6000DF93CDB7DEB722970FB6F894DEBF0FBE83
:100E7000CDBF198560918D0370918E036115710549
:100E800009F410C1212F33272770307080918C0313
:100E90009927821793070CF405C1812F877083303F
:100EA000F1F0843028F48130A1F08230A8F40EC033
:100EB0008530D9F08530B0F08630D1F0873019F424
:100EC0008DE391E017C08BE391E014C08CE791E0D3
:100ED00011C083E791E00EC08AE691E00BC081E685
:100EE00091E008C088E591E005C08FE491E002C080
:100EF00086E491E00E948B4260918D0370918E0395
:100F0000212F287F283709F4AAC0293790F52833E4
:100F100009F499C02933B0F4283109F48EC029317D
:100F200038F4283009F486C0203109F053C055C088
:100F3000283209F485C0203309F455C0203209F065
:100F400049C04EC0283509F484C0293548F42834F6
:100F500009F47CC0203509F44CC02034D9F546C0D2
:100F6000283609F479C0203709F449C0203691F5B4
:100F700043C0283B09F47FC0293BA8F4283909F471
:100F800074C0293940F4283809F46CC02039E9F1DB
:100F9000203801F537C0283A09F46AC0203BD9F15E
:100FA000203AC1F435C0283D09F46BC0293D40F416
:100FB000283C09F463C0203DA1F1203C59F42EC027
:100FC000283E29F0203F99F1203E21F42DC08FE8E2
:100FD00091E059C085E891E056C080E292E053C0AC
:100FE0008BE192E050C086E192E04DC081E192E059
:100FF0004AC08CE092E047C087E092E044C082E0C3
:1010000092E041C08DEF91E03EC088EF91E03BC09F
:1010100083EF91E038C08EEE91E035C089EE91E02B
:1010200032C084EE91E02FC08FED91E02CC08AEDAC
:1010300091E029C085ED91E026C080ED91E023C0CC
:101040008BEC91E020C086EC91E01DC081EC91E03A
:101050001AC08CEB91E017C087EB91E014C082EBD3
:1010600091E011C08DEA91E00EC088EA91E00BC0DA
:1010700083EA91E008C08EE991E005C089E991E03A
:1010800002C084E991E00E948B42AE01445F5F4F51
:101090005A8349836A857B8580918D0390918E0365
:1010A0000E949F4222960FB6F894DEBF0FBECDBFBE
:1010B000DF91CF911F91089580918D0390918E03C0
:1010C00010928E0310928D030E94764108950E9423
:1010D000C10590938E0380938D03089587E08093DC
:1010E0008C030E9467080895833059F0843018F407
:1010F000882339F008C0853031F0853040F08630E3
:1011000091F48B9801C08B9A80938F0308958091FE
:101110008F03813021F48B9810928F0308958B9A5E
:1011200081E080938F0308958B9810928F03089528
:1011300080918F0399270895A398000000006FB154
:10114000A39AA498000000004FB1A49A5B980000F5
:1011500000008FB15B9A5A98000000002FB15A9A94
:1011600062956F707727407F5527642B752B807FA2
:10117000992734E0880F991F3A95E1F7682B792B6E
:10118000207F3327322F2227622B732B70939303F8
:10119000609392038FEF6F3B780709F458C08FEF8D
:1011A000603C7807F8F48BEF6F3F780709F45EC076
:1011B0008CEF6030780748F48FEE6F3F780709F4C2
:1011C0005BC06F5F774F89F548C08EEF6F3F780740
:1011D00009F449C08FEF6F37780781F16F5F7D4F5A
:1011E00021F547C08FEF673F780759F18FEF683FD0
:1011F000780760F48FEF6F3D780791F18FEF6F3EC6
:10120000780741F16F5C7F4F81F40CC08FEF6D3F29
:10121000780789F08FEF6E3F7807B1F06B5F7F4FF3
:1012200021F406C08EE090E029C088E890E026C056
:1012300081E090E023C082E090E020C083E090E075
:101240001DC084E090E01AC085E090E017C086E001
:1012500090E014C087E090E011C088E090E00EC0FC
:1012600089E090E00BC08AE090E008C08BE090E05D
:1012700005C08CE090E002C08DE090E08093940384
:101280000895E82F862F8150823030F4E03120F429
:10129000FF27E856FC4F60830895809194039927B7
:1012A000089580939403E0919003F0919103309717
:1012B00039F48FEF9FEF90939103809390030895FB
:1012C0008FEFEF3FF80729F0848195810196958390
:1012D00084830895A39AA49A5B9A5A9A10929703CA
:1012E0008FEF9FEF90939303809392030FB6F89440
:1012F0000F9210929103109290030F900FBE8FEFF8
:1013000080939403E8E9F3E082E0819393E0E83A84
:10131000F907D9F7109296031092950361E088E0DF
:101320000E94410961E08BE00E94410961E08AE08E
:101330000E94410961E08CE00E9441090895AB01DF
:10134000BC0180E993E00E94762E20E030E08F5FC0
:101350009F4F11F421E030E0C9010895813011F46C
:10136000739A0895882309F4739808959AB19F7029
:10137000906F9AB99BB19F70607F962B9BB982301A
:1013800011F48A9801C08A9A729A0000000072983B
:101390008A988AB18F708AB98BB18F70806F8BB940
:1013A00008950F931F93082F162F8A98899A729A7F
:1013B000000000004F99FBCF72988A988998612F9E
:1013C000607F802F0E94B6091295107F612F802FB9
:1013D0000E94B6091F910F910895682F83E00E9423
:1013E000D1090895EF92FF920F931F93CF93DF934C
:1013F0007B01C0E0D0E08C0106C0F80181918F0133
:101400000E94ED092196CE15DF05BCF3DF91CF9147
:101410001F910F91FF90EF9008951F938CE80E9409
:101420007C2A10E063E382E00E94B60984E00E9417
:101430007C2A1F5F1330B1F762E282E00E94B60996
:1014400081E00E947C2A68E282E00E94D10985E066
:101450000E947C2A6CE082E00E94D10985E00E9413
:101460007C2A61E082E00E94D10985E00E947C2A0A
:1014700066E082E00E94D10960E882E00E94D10922
:101480001F9108950FB6F8940F929DB3882311F021
:10149000EE9A01C0EE980F900FBE892F992726E093
:1014A000969587952A95E1F781709070089580E070
:1014B0000E94420A982F8091A803813011F4109263
:1014C000A803892F0E94420A80E090E0089580914D
:1014D000A803992708958091A9039091AA030895DC
:1014E0008091A9039091AA0308950F931F93CF931E
:1014F000DF93EC018B0180E090E00E94C20F05C0F9
:10150000FE0184910E94AA0F219601501040FFEF26
:101510000F3F1F07A9F70E949F0FDF91CF911F91E7
:101520000F9108951F9380E00E94420A182F64E0F3
:1015300070E083E995E00E94750A64E070E08FE84E
:1015400095E00E94750A812F0E94420A80E090E097
:101550001F9108950F931F93CF93DF938C01EB019D
:1015600080E090E00E94C20F05C0F80181918F01D8
:101570000E94AA0F2197FFEFCF3FDF07B1F70E942C
:101580009F0FDF91CF911F910F910895EF92FF92DE
:101590000F931F93F82E8B010E94A60FE82E80E078
:1015A0000E94A30F80E090E00E94C20F2C9882E07E
:1015B0000E94AA0F8F2D0E94AA0F812F99270E94A7
:1015C000AA0F802F0E94AA0F2C9A0E949F0F8E2D87
:1015D0000E94A30F1F910F91FF90EF900895DF924B
:1015E000EF92FF920F931F93082FE62E80E00E9448
:1015F000420AD82E1127102F0027FF240E291F2959
:10160000B8018BE00E94C60A8D2D0E94420A80E03C
:1016100090E01F910F91FF90EF90DF900895FF925F
:101620000F931F938C0180E00E94420AF82E1C60E9
:10163000B80180E00E94C60A8F2D0E94420A80E015
:1016400090E01F910F91FF9008951F93CF93DF9328
:10165000CDB7DEB721970FB6F894DEBF0FBECDBF72
:10166000898380E00E94420A182F80E290E00E9465
:101670000F0B63E070E08BE995E00E94750A61E072
:1016800070E0CE0101960E94AA0A64E070E087E94A
:1016900095E00E94750A812F0E94420A80E090E046
:1016A00021960FB6F894DEBF0FBECDBFDF91CF916C
:1016B0001F910895282F332727703070C90153E0F8
:1016C000880F991F5A95E1F7820F931F885C0E943B
:1016D000250B0895DF92EF92FF920F931F93CF9304
:1016E000DF93CDB7DEB721970FB6F894DEBF0FBEFC
:1016F000CDBF89837B0180E00E94420AD82E80E220
:1017000090E00E940F0B89818295807F885C89839D
:1017100063E070E086EA95E00E94750A61E070E09F
:10172000CE0101960E94AA0A0EE915E064E070E07D
:10173000C8010E94750A8E2D0E947C2A64E070E028
:1017400082EA95E00E94750A64E070E0C8010E9498
:10175000750A8D2D0E94420A80E090E021960FB616
:10176000F894DEBF0FBECDBFDF91CF911F910F91D7
:10177000FF90EF90DF9008950F931F938C0180E00E
:101780000E94420A1092A803C80184600E940F0BB5
:101790008AE00E947C2A80E48CBB80E090E01F916C
:1017A0000F910895DF92EF92FF920F931F93182FDE
:1017B0000E94A60FD82E80E00E94A30F80E090E048
:1017C0000E94C20F2C9883E00E94AA0F812F0E94D2
:1017D000AA0F0E94AF0FE82EFF24FE2CEE240E94D9
:1017E000AF0F082F2C9A0E949F0F8D2D0E94A30FE0
:1017F0001127C701802B912B1F910F91FF90EF9024
:10180000DF900895FF920F931F9380E00E94420A99
:10181000F82E8BE00E94D20B8C018F2D0E94420A81
:10182000C8011F910F91FF900895FF920F931F938E
:10183000182F80E00E94420AF82E812F0E94D20BBE
:101840008C018F2D0E94420AC8011F910F91FF90B9
:10185000089589E00E94150C9C018FEF213E380706
:1018600090F58DE424353807A1F18DE4253538074E
:1018700068F481E424353807F9F08DE4243338071F
:10188000D9F081E42434380709F516C087E52D36F0
:101890003807F9F087E52E36380728F487E52D3428
:1018A0003807A1F409C086E72536380729F08FEFFD
:1018B000203E380759F40DC08091A9039091AA03E6
:1018C000039739F403C020EE3FEF03C080E090E0BF
:1018D0000895C901089580E00E94420A2F982C9A29
:1018E0002898209A84E00E947C2A80E00E94A30F1E
:1018F0001092A8032F9A84E00E947C2A81E00E9423
:10190000D20B74E0969587957A95E1F78770907081
:101910009093AA038093A903039719F460E070EEF3
:1019200002C060E078E983E00E94C60A82E30E9478
:101930007C2A80E090E00E940F0B60E080E00E9433
:10194000EF0A82E30E947C2A8091A9039091AA0366
:101950000397029710F482E001C081E00E94A30F78
:1019600040E050E063EC7CE08EED92E00E947B2F43
:1019700066E070E08EED92E00E94F92F80E48CBB6F
:1019800080E090E00895BF92CF92DF92EF92FF92B5
:101990000F931F93CF93DF93CDB7DEB722970FB688
:1019A000F894DEBF0FBECDBF8091A803813009F04F
:1019B0004FC0669B4DC080E00E94420AB82E7894CA
:1019C0001A82198280E090E00E94C20FF0E2EF2EAE
:1019D000F12C00E010E0CC24DD2403C0EFE1EE2E7A
:1019E000F12C89819A81C816D906C0F0C114D1049E
:1019F00019F0C6010E949627CE0101960E94152774
:101A00008C0189819A81892B19F0CC24DD2408C0AE
:101A100082E08093A803CC24DD2412C0892B41F0FE
:101A2000F80181918F010E94AA0F0894C11CD11C5A
:101A30006699D4CF0894E108F108E114F10489F61D
:101A40000E949F0FC6010E9433288B2D0E94420ADC
:101A500022960FB6F894DEBF0FBECDBFDF91CF91B7
:101A60001F910F91FF90EF90DF90CF90BF9008955E
:101A70000F931F93CF93DF938091A803813009F4D4
:101A800035C080E00E94420AC5E2D2E0FE016591C5
:101A90007491E1EBF5E0E4918E2F0E94C60A00E01C
:101AA00010E011C0FE0165917491F801EF54FA4FF6
:101AB000E4918E2F0E94C60AC80164EF71E00E9473
:101AC0009047892B11F40E941A0E0F5F1F4F229628
:101AD00081E0053B180731F781E08093A80380E09F
:101AE00090E00E94C30C81E00E94420A80E090E0F6
:101AF000DF91CF911F910F9108951F93CF93DF93A3
:101B000080E090E00E94BC0B80E290E00E940F0B0E
:101B100080E00E94420A182F68E070E089EA95E0B0
:101B20000E94750A88E20E947C2A88E00E94D20BFB
:101B3000EC01812F0E94420A8091A9039091AA038F
:101B4000039731F480E8CF37D80711F4C0E0D0E034
:101B5000CE01DF91CF911F910895089580916A0081
:101B60008C7F80936A0040E050E06DEA7DE088ED74
:101B700092E00E947B2F892B31F480916A00826071
:101B800080936A00EC9A8091810083608093810049
:101B9000AD9A0FB6F8940F921092AC031092AB036B
:101BA0000F900FBE0895EF92FF920F931F93AB011A
:101BB000BC01A89521E0E12CE8E0FE2E012D112DBD
:101BC00001C02F5FD801C701022E04C0880F991FE2
:101BD000AA1FBB1F0A94D2F737E0B695A795979531
:101BE00087953A95D1F784179507A607B70748F365
:101BF0002093AE032A3018F029702093AE03209171
:101C0000AE0323FF02C038E201C038E088E190E073
:101C10002770322B0FB6F894A895809360000FBE02
:101C20003093600081E08093AD031F910F91FF908E
:101C3000EF900895A89508958091AD03882319F039
:101C40008F5F8093AD0388E10FB6F89480936000B6
:101C5000109260000FBE08958091AD038230C0F0F5
:101C600081508093AD03813099F42091AE0323FF1E
:101C700002C038E201C038E088E190E02770322BE2
:101C80000FB6F894A895809360000FBE3093600063
:101C900008958091B2039091B3038130910589F04A
:101CA0008130910530F08230910521F10397E9F5FB
:101CB0002DC078993AC081E08093B10381E090E033
:101CC00020C0789912C08091B1038F5F8093B103D7
:101CD0008E3159F581E08093B00382E090E09093DB
:101CE000B3038093B20381E021C01092B30310923A
:101CF000B2031BC0789B19C081E08093B10383E0DD
:101D000090E09093B3038093B2030FC08091B1032E
:101D10008F5F8093B103843141F41092B00310922D
:101D2000B3031092B20380E001C082E099270895C6
:101D30008091B003992708958091B4039091B503E1
:101D4000089508950F931F93CF93DF93CDB7DEB718
:101D50002A970FB6F894DEBF0FBECDBF1092B30323
:101D60001092B2031092B00364E777E08E010F5F28
:101D70001F4FC8010E94FC46C8010E945E29892BA2
:101D8000B1F420E033E040E050E063E67FE0C801DA
:101D90000E948030892B59F486E697E09F938F93B9
:101DA00080EE8F930E942E070F900F900F902A962F
:101DB0000FB6F894DEBF0FBECDBFDF91CF911F915C
:101DC0000F910895FF920F931F93CF93DF93CDB799
:101DD000DEB72A970FB6F894DEBF0FBECDBF82E103
:101DE00092E00E94F02E892BB9F480E00E94420A12
:101DF000F82E40E067E070E080E192E00E940C2F56
:101E00008C01892B51F540E067E070E083E392E0BC
:101E10000E940C2F8C0121C00E94841380E00E943C
:101E2000420AF82EE0912302F0912402309729F023
:101E300080E192E01995892B59F4E0914602F091E6
:101E40004702309741F083E392E01995892B19F00E
:101E50000FEF1FEF02C000E010E08F2D0E94420A3A
:101E600001151105C1F487EC97E09F938F9386EEDF
:101E70008F930E942E0760E070E0CE0101960E94D1
:101E8000DE400F900F900F902FEF8F3F920771F071
:101E90000E94B6400BC088E997E09F938F9383EE32
:101EA0008F930E942E070F900F900F90C8012A96D3
:101EB0000FB6F894DEBF0FBECDBFDF91CF911F915B
:101EC0000F91FF9008958091B0038093AF038091AC
:101ED000B0038130B9F48091AF03882349F58AE8D3
:101EE00097E09F938F9386EE8F930E942E070E9418
:101EF000E20E0F900F900F90892B29F780E10E943E
:101F00005109E1CF8823A1F48091AF03813081F49E
:101F10008DE797E09F938F9386EE8F930E942E0715
:101F20008091B0038093AF030F900F900F90CFCFAD
:101F300064EF71E080E090E00E948E2BC8CF779A2A
:101F40002E982D9A08958093B60308958091B60334
:101F5000992708958EBD0DB407FEFDCF08958FEF2C
:101F60008EBD0DB407FEFDCF8EB5992708958EBDA9
:101F70000DB407FEFDCF8EB599270895779A2E9858
:101F80002D9A08959C010097F9F48091B603882357
:101F900021F481E08DBD81E504C0813021F41DBCB8
:101FA00080E58CBD25C0823019F481E08DBDF8CF6D
:101FB00084ED97E09F938F938BE78F930E942E077A
:101FC0000F900F900F9014C0019741F481E08DBDE8
:101FD00080E58CBD2D9A2E98779808951DBC80E5DC
:101FE0008CBD2130310520F02230310541F404C090
:101FF000779A2D9A2E9A0895779A2E982D9808956B
:1020000080E090E0089580E090E0089580E090E026
:10201000089540E050E060E070E087EB93E00E94BC
:10202000762E0895CF93DF93CEEFDFEF0E94AF0FB0
:102030008F3F11F42197D1F79927DF91CF91089520
:10204000CF93DF93CEEFDFEF0E94AF0F8E3F11F003
:102050002197D1F79927DF91CF910895DF92EF92E1
:10206000FF920F931F93D82E8B017A0182E090E0AC
:102070000E94C20F8FEF0E94AA0F8D2D80640E94D4
:10208000AA0F812F99270E94AA0F802F0E94AA0FC2
:102090008F2D99270E94AA0F8E2D0E94AA0F85E9E5
:1020A0000E94AA0F8FEF0E94AA0F1F910F91FF901D
:1020B000EF90DF9008956F927F928F929F92AF92F0
:1020C000BF92CF92DF92EF92FF920F931F93CF9325
:1020D000DF935B0169017A013801882499243AC0B1
:1020E000A601542F4427550FC701B60127E0969546
:1020F0008795779567952A95D1F781E10E942E10F3
:102100000E9420108E3F29F00E949F0F81E090E0F6
:1021100026C08501C0E0D0E00E94AF0FF801819396
:102120008F012196F2E0C030DF07B1F780E092E046
:10213000A80EB91E8FEF0E94AA0F8FEF0E94AA0F60
:102140000E949F0F0894811C911C0894C11CD11CF3
:10215000E11CF11C8614970419F680E090E0DF91F1
:10216000CF911F910F91FF90EF90DF90CF90BF9094
:10217000AF909F908F907F906F90089587EB93E042
:102180000E94232E08952F923F924F925F926F925A
:102190007F928F929F92AF92BF92CF92DF92EF92F7
:1021A000FF920F931F93CF93DF93CDB7DEB728979E
:1021B0000FB6F894DEBF0FBECDBFF82E6B0139010C
:1021C0004A0118010E940910FF2019F022E030E0B6
:1021D000A8C0C801AA27BB27860D971DA81DB91D39
:1021E0002091BC033091BD034091BE035091BF03C9
:1021F000281739074A075B0728F483E090E09E839D
:102200008D8302C01E821D828091B9039091BA0312
:1022100097FD04C0E2E0F0E0FE83ED8396FD7FC011
:102220002D813E81232B09F092C0DC82CB8272C0CB
:102230003FEF2316310409F010F4610103C0C12CF3
:10224000A1E0DA2E4B805C80840173011A8219822E
:1022500053C0A701542F4427550FC801B701E7E029
:102260009695879577956795EA95D1F788E10E94CD
:102270002E100E9412108F3F09F445C08EEF0E946D
:10228000AA0F520118861F82F50181915F010E94F9
:10229000AA0F2F8138852F5F3F4F38872F8320501B
:1022A000324091F7E0E0F2E04E0E5F1E8FEF0E94A9
:1022B000AA0F8FEF0E94AA0F8FEF0E94AA0F5FEF65
:1022C000A52EB52E0E94AF0F882339F40894A108DB
:1022D000B108A114B104B9F0F5CF0894E11CF11CC8
:1022E000011D111DAB2879F00E949F0F29813A81B1
:1022F0002F5F3F4F3A83298389819A818C159D05F1
:1023000009F0A7CF11C00E949F0FE1E0F0E0FE832B
:10231000ED831DC02114310409F08ACF18C028E0D4
:1023200030E03E832D8313C0C601AA27BB27680E69
:10233000791E8A1E9B1E2C183D08DC2CCC24DD0C3B
:102340008B819C818C0D9D1D9C838B83E3CF0E9490
:10235000BE108D819E8128960FB6F894DEBF0FBE09
:10236000CDBFDF91CF911F910F91FF90EF90DF9044
:10237000CF90BF90AF909F908F907F906F905F9025
:102380004F903F902F9008958F929F92AF92BF925F
:10239000CF92DF92EF92FF920F931F93CF93DF9331
:1023A000F82EEB0149015A0168010E940910FF2033
:1023B000F1F48091B9039091BA0397FF18C0C80156
:1023C000AA27BB27880D991DAA1DBB1D2091BC0300
:1023D0003091BD034091BE035091BF0328173907C8
:1023E0004A075B0708F042C003E010E044C002E087
:1023F00010E041C02FEFC216D10409F010F4E6013D
:1024000002C0C0E0D1E08E01A5019401B70189EBC3
:1024100093E00E945B108C01892B69F5CE01AA27FD
:10242000BB27880E991EAA1EBB1ECC1ADD0A8091FE
:10243000C0039091C1039C01C29FC001C39F900D36
:10244000D29F900D1124E80EF91EC114D10491F60B
:1024500000E010E010C001E010E0A5019401BE0111
:1024600089EB93E00E945B108C0105C07E01013076
:10247000110559F7F0CF0E94BE10C801DF91CF912E
:102480001F910F91FF90EF90DF90CF90BF90AF9092
:102490009F908F900895EF92FF920F931F93182FA4
:1024A0000E940910112321F0EE24FF24870108C0A7
:1024B000E090BC03F090BD030091BE031091BF03F8
:1024C0000E94BE10C801B7011F910F91FF90EF90BD
:1024D00008951F93CF93DF93182F0E9409101123A3
:1024E00019F0C0E0D0E004C0C091C003D091C10396
:1024F0000E94BE10CE01DF91CF911F910895CF921F
:10250000DF92EF92FF920F931F93CF93DF93CDB79C
:10251000DEB760970FB6F894DEBF0FBECDBF6B017C
:102520000E9409108091B9039091BA0397FF8AC065
:1025300040E050E060E070E089E00E942E100E94D0
:1025400020108E3F61F082EE97E09F938F9383EF90
:102550008F930E942E070F900F900F9073C08E01E3
:102560000F5F1F4F0E94AF0FF80181938F01CE01C3
:102570004196E817F907B1F78FEF0E94AA0F8FEF86
:102580000E94AA0F0E949F0FEE80FFE0EF2221E041
:1025900030E0C90102C0880F991FEA94E2F77C017C
:1025A0006F81772763707070762F6627770F770FAC
:1025B000E885FF27EE0FFF1FEE0FFF1F6E2B7F2B0F
:1025C00009851127EA85FF27E370F070DF01AA0F64
:1025D000BB1FEA2BFB2BAB85BB2786E01695079527
:1025E0008A95E1F7602B712B6F5F7F4F88279927C2
:1025F000AA0FAB2FAA1FBB0BB195EA2BFB2B329670
:1026000002C0220F331FEA95E2F7442755270E94A4
:1026100051476093BC037093BD038093BE039093B6
:10262000BF03F092C103E092C0030E94BE1001E01C
:1026300010E020E030E040E050E0B60180E00E9491
:10264000C41104C00E94BE1081E090E060960FB6F5
:10265000F894DEBF0FBECDBFDF91CF911F910F91D8
:10266000FF90EF90DF90CF900895CF93DF9370931A
:10267000C3036093C2035093C5034093C40389E02E
:10268000E9EBF3E011928A95E9F71092BB0387EB2F
:1026900093E00E94232EC0E0D0E08FEF0E94AA0FAB
:1026A0002196CA30D105C9F740E050E060E070E003
:1026B00080E00E942E100E941210813099F4CFEF1A
:1026C000DFEF07C040E050E060E070E081E00E9492
:1026D0002E100E94AF0F882319F0219799F702C09E
:1026E000CD2B29F40E949F0F81E090E00AC00E9448
:1026F0009F0F80E090E89093BA038093B90380E045
:1027000090E0DF91CF9108951092C7031092C60315
:102710000895EF92FF920F931F93CF93DF93EC01F5
:102720007A018B018B8180FD1AC08EEF9FEFAFEF96
:10273000BFEFE80EF91E0A1F1B1F2A81332744270B
:102740005527C801B7010E945147AB01BC018A8DD2
:102750009B8DAC8DBD8D480F591F6A1F7B1FCB0110
:10276000BA01DF91CF911F910F91FF90EF900895E3
:102770008FEF9FEF08958FEF9FEF0895282F8F3FE2
:1027800011F420E006C0882321F099270E94C54754
:10279000282F822F992787FD909508958F929F92D9
:1027A000AF92BF92CF92DF92EF92FF920F931F935F
:1027B000FC016A017B01838180FF07C0CB01BA0164
:1027C0006F5F7F4F8F4F9F4F69C080818288938852
:1027D000A488B5886091CA037091CB038130A9F5B4
:1027E000A7019601A7E05695479537952795AA9595
:1027F000D1F7280D391D4A1D5B1D01E010E08181D4
:102800000E94C4118091CA039091CB03F601EF7727
:10281000F070EE0FFF1FEE0FFF1FE80FF91F608132
:102820007181828193819F706F3F2FEF72072FEF2D
:1028300082072FE0920771F1673F2FEF72072FEFAA
:1028400082072FE0920751F525C055274F2D3E2DC9
:102850002D2D280D391D4A1D5B1D01E010E08181E1
:102860000E94C4118091CA039091CB03F601F070CD
:10287000EE0FFF1FE80FF91F208131818FEF2F3FEF
:10288000380741F08FEF273F380721F0B90188273B
:10289000992704C060E070E080E090E01F910F9104
:1028A000FF90EF90DF90CF90BF90AF909F908F9070
:1028B00008952F923F924F925F926F927F928F92E4
:1028C0009F92AF92BF92CF92DF92EF92FF920F93BF
:1028D0001F93CF93DF93CDB7DEB76A970FB6F89407
:1028E000DEBF0FBECDBF988B8F877A8B698B5C8BD9
:1028F0004B8B18012901FE8AED8AD88ECF8AD70129
:102900001D921D921D921C921397DA010D900020CA
:10291000E9F71197A41BB50BCD010C966DE070E0A3
:102920000E949047F62FF064F983F53E09F496C1B2
:102930008DE0689F900111243B832A832F3331055A
:102940000CF08CC17901BF2E1E86CC24DD2480C101
:10295000B201A1018F8598890E94891368877987C0
:102960008A879B87EF85F8898281282F33273D87C7
:102970002C8731E0231631044104510479F480811D
:10298000882361F482859385A485B5858887998796
:10299000AA87BB87268137813D872C876884798405
:1029A0008A849B8442C16091CA037091CB0301E089
:1029B00010E0A4019301EF85F88981810E94C41180
:1029C0002091CA033091CB033F832E838091CC03A7
:1029D0009091CD039D838C833A8F298F9E85913072
:1029E00019F4E98DFA8D1DC02F89388D232B99F5A7
:1029F000A98DBA8D8C91853E71F1882361F14BE0F0
:102A000050E069897A89CD010E941947892B19F50F
:102A1000E989FA899385E98DFA8D83858923891758
:102A2000D1F484899589AA27BB27AC0133272227B3
:102A3000828D938DAA27BB27282B392B4A2B5B2B02
:102A4000848D958DA68DB78DED89FE8980839183C8
:102A5000A283B38307C1E98DFA8D83858F3009F096
:102A6000D0C0A080AB1409F0CCC0B6FE0DC0BFEB47
:102A7000AB2EAB20AC81BD81AE0DBF1D1C92089466
:102A8000E108F108CC80DD80E98DFA8D868D978D87
:102A90000E94BE13F601EE0DFF1D808387010150D9
:102AA0001040E98DFA8D848D958D0E94BE13F6013C
:102AB000E00FF11F808301501040E98DFA8D808D69
:102AC000918D0E94BE13F601E00FF11F808301502B
:102AD0001040E98DFA8D868997890E94BE13F60110
:102AE000E00FF11F808301501040E98DFA8D848939
:102AF00095890E94BE13F601E00FF11F80830150FB
:102B00001040E98DFA8D828993890E94BE13F601E7
:102B1000E00FF11F808301501040E98DFA8D80890C
:102B200091890E94BE13F601E00FF11F80830150CE
:102B30001040E98DFA8D868597850E94BE13F601B7
:102B4000E00FF11F808301501040E98DFA8D8185DF
:102B500092850E94BE13F601E00FF11F80830150A1
:102B60001040E98DFA8D878190850E94BE13F60191
:102B7000E00FF11F808301501040E98DFA8D8581AF
:102B800096810E94BE13F601E00FF11F8083015071
:102B90001040E98DFA8D838194810E94BE13F60165
:102BA000E00FF11F808301501040E98DFA8D818183
:102BB00092810E94BE13F601E00FF11F8083BA2CB0
:102BC000BA9429F078010894E108F1081AC0AB8999
:102BD000BC890D900020E9F711972B893C89A21B35
:102BE000B30BAD01B601C9010E941947892B31F41D
:102BF000EA80FB80B98031E03E8703C0EA80FB8039
:102C0000B980898D9A8D80969A8F898F8E819F81C8
:102C100080509E4FA98DBA8DA817B90709F0DECE56
:102C20000894611C711C811C911CC301E885F98505
:102C30008E1B9F0B2C853D85821793070CF4B3CE1A
:102C4000B201A1018F8598890E94CE131B012C012E
:102C5000211431044104510409F07ACE20E030E01F
:102C600040E050E0CA01B9016A960FB6F894DEBFA1
:102C70000FBECDBFDF91CF911F910F91FF90EF90CD
:102C8000DF90CF90BF90AF909F908F907F906F908C
:102C90005F904F903F902F90089584E394E00E94BE
:102CA000232E089584E394E00E94232E089540E0AB
:102CB00050E060E070E084E394E00E94762E089596
:102CC0002F923F924F925F926F927F928F929F923C
:102CD000AF92BF92CF92DF92EF92FF920F931F932A
:102CE000CF93DF93CDB7DEB728970FB6F894DEBF4A
:102CF0000FBECDBF8C016B015E834D830E945716C2
:102D00000115110509F4F6C0F80104811581188731
:102D10000F830115110509F4EDC06D817E816115E8
:102D2000710509F4E7C0F801E484F5840685178588
:102D30002081318142815381E216F3060407150791
:102D400008F0D2C0CB01AA2797FDA095BA2F8E0D0F
:102D50009F1DA01FB11F281739074A075B0720F4E2
:102D60002E193F093E832D83EF81F885008CF18D6C
:102D7000E02DFC83EB83DA82C982248035804D808C
:102D80005E80ABC0EF81F885608871888288938807
:102D90005101CC24DD2440855185628573858B816A
:102DA0009C810E9489137B018C01C401B301A6019F
:102DB00095010E94A347442737FD4095542F2E0DBF
:102DC0003F1D401F511F6091CA037091CB0301E06A
:102DD00010E0EB81FC8181810E94C411892B09F0F4
:102DE00079C0C401B301A60195010E94A347610106
:102DF000421453040CF46201CB018C0D9D1D281666
:102E000039061CF46101C61AD70A8091CA03909151
:102E1000CB03680F791FA60189819A810E942647FA
:102E200076010027F7FC0095102FEF81F8852485A7
:102E30003585468557852E0D3F1D401F511F248720
:102E400035874687578780899189A289B3898E0DF6
:102E50009F1DA01FB11F808B918BA28BB38B808194
:102E60009181A281B381281739074A075B0720F0B7
:102E700081E090E0978B868BEF81F88520893189FE
:102E800042895389EB81FC81868D978DA0A1B1A1E8
:102E9000281739074A075B07A0F0EF81F8854085BE
:102EA0005185628573858B819C810E94CE13EF8151
:102EB000F8856087718782879387108A118A128AC2
:102EC000138A69817A816C0D7D1D7A8369834C1820
:102ED0005D0803C08DEF9FEF09C04114510409F054
:102EE00051CF0D811E8108C08EEF9FEFEF81F885D5
:102EF000958B848B00E010E00E945216C801289642
:102F00000FB6F894DEBF0FBECDBFDF91CF911F91FA
:102F10000F91FF90EF90DF90CF90BF90AF909F9078
:102F20008F907F906F905F904F903F902F9008957B
:102F3000EF92FF920F931F93CF93DF93EC010E94C8
:102F40005716209749F0EC81FD81309729F0E080F9
:102F5000F1800281138108C00FEFE02E0FEFF02EF9
:102F60000FEF002F0FEF102F0E945216C801B7016C
:102F7000DF91CF911F910F91FF90EF900895CF9324
:102F8000DF93EC010E945716209719F4CFEFDFEF83
:102F90000BC08C819D81009711F00E942126CE01EB
:102FA0000E942126C0E0D0E00E945216CE01DF919F
:102FB000CF9108950F931F938C010E945716012BF8
:102FC00011F41092D0030E9452161F910F91089590
:102FD0002F923F924F925F926F927F928F929F9229
:102FE000AF92BF92CF92DF92EF92FF920F931F9317
:102FF000CF93DF93CDB7DEB724970FB6F894DEBF3B
:103000000FBECDBF182F0E9457168091C803909114
:10301000C903892B41F480E490E00E94AE2590938F
:10302000C9038093C8038091CC039091CD03892B71
:1030300041F480E490E00E94AE259093CD0380930C
:10304000CC038091CA039091CB03892B59F480E083
:1030500092E00E94AE259093CB038093CA03892B04
:1030600009F445C18091C8039091C903892B09F4E3
:103070003EC18091CC039091CD03892B09F437C1D7
:1030800082E2189FF0011124E253FC4F11928A95BD
:10309000E9F7E12EFF242701440C551CC70135E058
:1030A000880F991F3A95E1F7480E591E2EEC33E030
:1030B000420E531EF2011183812F0E946912F20108
:1030C00095838483812F0E940010019721F4F201DF
:1030D000838181608383812F0E940310019721F4F3
:1030E000F201838182608383F20184819581805023
:1030F000924019F001E010E0FCC0F201838181FFF1
:1031000005C020E230E040E050E038C06091CA03E2
:103110007091CB0301E010E020E030E040E050E0AF
:103120008E2D0E94C4118C01892B09F0E2C0E09120
:10313000CA03F091CB03E250FE4F80819181EE5F94
:10314000F14085559A4A09F0D4C0E653FE4F80817C
:103150009181A281B381EA5CF1400097A105B1059C
:1031600009F4C7C0EA53FE4F208131814281538167
:10317000211531054105510509F4BBC06091CA0311
:103180007091CB0301E010E08E2D0E94C4112090BD
:10319000CA033090CB034EEF51E0240E351ED1010F
:1031A0008D919C91E2E0FEEF2E0E3F1E85559A4ACE
:1031B00009F09DC0F1018585F2018283F101268924
:1031C00037892115310571F0C901AA27BB278983E9
:1031D0009A83AB83BC83D2011C9281E090E0A0E093
:1031E000B0E010C0F10124A135A146A157A1298367
:1031F0003A834B835C8381E0D2018C9384A595A5AF
:10320000A6A5B7A5F20186879787A08BB18BF101A0
:10321000638574858189928925E0880F991F2A9595
:10322000E1F7860F971F01970E947C473B01882496
:103230009924E684F78400271127A48CB58CC68CCA
:10324000D78CAE0CBF1CC01ED11EF201A28AB38A5D
:10325000C48AD58A29813A814B815C81A20EB31E32
:10326000C41ED51EA68AB78AC08ED18EF101608990
:103270007727882799270E945147F101248D358DA2
:10328000468D578DE20EF31E041F151FE60CF71C2A
:10329000081D191DE60EF71E081F191FF201E28E08
:1032A000F38E048F158FF10185859927F201248112
:1032B0003581AC01429FC001439F900D529F900DFC
:1032C0001124AA27BB27868F978FA0A3B1A366825C
:1032D00077828086918629813A814B815C81A20E1A
:1032E000B31EC41ED51EA286B386C486D58600E052
:1032F00010E00E945216C80124960FB6F894DEBF63
:103300000FBECDBFDF91CF911F910F91FF90EF9036
:10331000DF90CF90BF90AF909F908F907F906F90F5
:103320005F904F903F902F9008952F923F924F9231
:103330005F926F927F928F929F92AF92BF92CF9245
:10334000DF92EF92FF920F931F93CF93DF93CDB74E
:10335000DEB72E970FB6F894DEBF0FBECDBFFC01CF
:10336000892B09F4A1C2848180330CF49DC282337D
:103370000CF490C2863409F097C28CC20E94571692
:103380008091D2039091D3030E94AE259E878D87B2
:10339000892B09F489C23090CF03832D0E944B12F0
:1033A0002B013C0180EE9FEFAFEFBFEF480E591E9F
:1033B0006A1E7B1EE6E5F2E09F012C5F3F4F808195
:1033C0009181A281B38184159505A605B70538F0D2
:1033D000D9018C919927282E882341F00CC02B5FAE
:1033E0003F4F3596B2E028373B0749F78D859E85DC
:1033F0000E94212659C29927AA27BB2789839A832D
:10340000AB83BC83C301B20129813A814B815C81CA
:103410000E94A347DA01C90102E0880F991FAA1F81
:10342000BB1F0A95D1F781509E4FAF4FBF4F19E098
:10343000B695A795979587951A95D1F789879A8715
:10344000AB87BC874C015D01880C991CAA1CBB1C76
:1034500089819A81AB81BC81815A9F4FAF4FBF4F09
:10346000880E991EAA1EBB1E8F559040A040B040EA
:1034700089839A83AB83BC834091D2035091D30359
:1034800060E070E08D859E850E942F47CC24DD246E
:10349000760110C001E010E0A70196016D857E85E0
:1034A000832D0E94C310892B51F40894C11CD11C98
:1034B000E11CF11CC814D904EA04FB0459F780E0AC
:1034C00090E00E94F6426D837E838F8398874091BF
:1034D000D2035091D30360E070E08D859E850E94F9
:1034E0002F47AD85BE85A254BE4F1D9281E08D93BE
:1034F0008D931D928BE08D931D921C921296EFE39B
:10350000AE2EB12CC12CD12CFD01A192B192C19251
:10351000D192DF014082518262827382AA5CB14003
:10352000BE87AD877EEFE72E71E0F72EEA0EFB1E19
:1035300065E5862E6AEA962EF7019182808201E087
:1035400010E020E030E040E050E0BD01832D0E941B
:10355000C3108C01892B09F005C14091D203509111
:10356000D30360E070E08D859E850E942F478BEE2F
:10357000AD85BE858C9388E5FD01818380E98283DA
:103580000DE4038393E5948384E485831FE4168329
:10359000978385E380878EE2818780E3828780E05E
:1035A00092E094878387258680E290E097878687DC
:1035B00082E0808B128A118A148A138A88EF858BA5
:1035C000178A168A8FE390E0918F808F8FEF90E0BB
:1035D000938F828FED85FE85A48EB58EC68ED78E95
:1035E00040A251A262A273A289859A85AB85BC854F
:1035F00084A395A3A6A3B7A311A610A613A612A6EB
:1036000052E0A52EB12CC12CD12CED85FE85A4A6AF
:10361000B5A6C6A6D7A681E090E091AB80AB86E0C8
:1036200090E093AB82ABE05CFF4F1082329689E270
:103630008193FE87ED876D817E818F819885A301BF
:1036400092010E945147AD85BE856D937D938D9308
:103650009D938EE48D931D9390E29D938D9321E431
:103660002D930D9385E48D939D939D939D939D93B1
:1036700086E48D932D9384E58D9383E38D9382E38C
:103680008D939D939D939C93A955B040BE87AD8724
:10369000F7019182808201E010E02FE330E040E00A
:1036A00050E0BD01832D0E94C3108C01892B09F0CD
:1036B00059C001E010E025E430E040E050E06D85C5
:1036C0007E85832D0E94C310892B09F0E7C04091AD
:1036D000D2035091D30360E070E08D859E850E94F7
:1036E0002F4781EA9FEFAFEFBFEF480E591E6A1ECA
:1036F0007B1E82E592E5A1E6B1E4ED85FE8580833F
:103700009183A283B383EC51FE4F82E792E7A1E459
:10371000B1E681939193A193B193FE87ED87C301A5
:10372000B20129813A814B815C810E94A347AD851A
:10373000BE852D933D934D935D93FD01A082B18293
:10374000C282D382EC5EF140FE87ED87D7018D9275
:103750009C9220E430E040E050E0BF01832D0E94C5
:10376000C3108C010115110509F086C04091D203E8
:103770005091D30360E070E08D859E850E942F47B5
:103780002D853E8588EF9FEFAFEFBFE0F901819374
:103790009193A193B1939F018FEF9FEFAFEFBFE0A4
:1037A000ED85FE8584839583A683B783F9018483A1
:1037B0009583A683B78301E010E02FE530E040E079
:1037C00050E06D857E85832D0E94C3108C01892B6E
:1037D00009F052C0C984DA84EB84FC848FE590E060
:1037E000A0E0B0E0C80ED91EEA1EFB1E01E010E00A
:1037F000A70196016D857E85832D0E94C310892BBC
:1038000009F04CC04091D2035091D30360E070E0C6
:103810008D859E850E942F4795E4AD85BE859C933E
:1038200024E5FD01218388E48283938382E58483F8
:103830008EE4858385E58683278380E28087818780
:10384000828788E08387158A148A138E128EED850D
:10385000FE85148E158E168E178E89859A85AB85FA
:10386000BC85C80ED91EEA1EFB1EA7019601BF012A
:10387000832D0E94C3108C018D859E850E94212678
:103880000E945216012B81F4832D0E94E8170097A5
:1038900069F00AC06050704139F470CD8D859E8505
:1038A0000E9421260E9452168FEF9FEF2E960FB690
:1038B000F894DEBF0FBECDBFDF91CF911F910F9166
:1038C000FF90EF90DF90CF90BF90AF909F908F9040
:1038D0007F906F905F904F903F902F9008950F933F
:1038E0001F93CF93DF938C0180E092E00E94AE257E
:1038F000EC01892B31F0802F0E94E817CE010E9445
:103900002126DF91CF911F910F910895EF92FF92A1
:103910000F931F93CF93DF93FC018091C603909187
:10392000C7030097A9F58281863409F03FC08381DF
:103930008134E1F584818435C9F5848595850797BF
:10394000A9F537C04AED57E16FE67CE180E090E0F1
:103950000E9435138C01892B19F00EEF1FEF14C054
:10396000B70180E090E00E947F12C0E0D0E08C2F91
:103970000E94E8172196C330D105C9F781E090E095
:103980009093C7038093C603C7010E9421261CC0E1
:10399000019761F48281863449F483818D3431F456
:1039A0008481803319F400E010E00EC00FEF1FEFA8
:1039B0000BC00E944D1680E092E00E94AE257C0173
:1039C000892B09F0BFCFEFCFC801DF91CF911F91B5
:1039D0000F91FF90EF9008952F923F924F925F9238
:1039E0006F927F928F929F92AF92BF92CF92DF920F
:1039F000EF92FF920F931F93CF93DF93CDB7DEB774
:103A0000A6970FB6F894DEBF0FBECDBF9EA38DA3C1
:103A10004B018091C6039091C703892B21F48DA19E
:103A20009EA10E94861C0E9457166090C803709049
:103A3000C9038DA19EA1009709F422C1FC018481D4
:103A400080330CF41DC182330CF41DC1863409F09F
:103A500017C119C1F4018081882309F411C18AE1D9
:103A600090E00E94AE255C018091E0039091E1031B
:103A7000A091E203B091E3030097A105B10509F419
:103A80001AC1A114B10409F4FBC0F40180818E3283
:103A900009F4E7C08AE1F50111928A95E9F72090CF
:103AA000DC033090DD034090DE035090DF03F4012F
:103AB00080818F3209F006C102C1FFE3EF16F104E5
:103AC0000CF003C183010E0D1F1D992787FD9095F2
:103AD0000E94C547F80180830894E11CF11C0894FA
:103AE000811C911CF40180818F3209F4D2C08C3585
:103AF00009F4CFC0882309F7CCC06EE270E0C3019F
:103B00000E943647009721F409301105D8F50BC003
:103B1000DC011196FD0101900020E9F73197EA1BC5
:103B2000FB0B349778F58E010B5F1F4F80E2F80195
:103B300011928A95E9F748E050E060E270E0C80130
:103B40000E942F4743E050E060E270E0CE010D9606
:103B50000E942F47D801F301930104C08D932F5F7A
:103B60003F4F319680818E3219F08823B9F70DC00E
:103B7000F901DE011D9601C08D9381813196882364
:103B8000D9F703C021E030E002C020E030E0F401CA
:103B900080818F3209F448C08C3509F445C08823F0
:103BA00009F05FC080E2888B8091D10380FD8DC0D9
:103BB0008EEC882E83E0982E69017E010894E11C2A
:103BC000F11C92018101A301BE016B5F7F4FC40113
:103BD0000E9459149B01AC01611571058105910585
:103BE00009F473C089819A81AB81BC81F50180831E
:103BF0009183A283B38324833583468357832087AD
:103C00003187428753871486158616861786108A51
:103C1000118A128A138A918E808E158A148A178AC5
:103C2000168A80E090E053C080E1888B8091D103B8
:103C300080FD4BC069017E010894E11CF11C9201DA
:103C40008101A301BE016B5F7F4F8EEC93E00E9468
:103C500059141B012C016115710581059105A9F10C
:103C60002EC0C5010E9421260BC086E090E00E9474
:103C7000AE258C01009771F5C5010E94212633C045
:103C80000FEF1FEF30C08091D003882309F0E2CE00
:103C9000F7CFE60CF71CF7011082F301019000202A
:103CA000E9F78F0101501040061917090D30110571
:103CB00008F068CF22CFA114B10499F6E1CF08949F
:103CC000811C911CEE24FF240DCF81E090E0019730
:103CD00061F6C7CFFC01118210828DA19EA1938352
:103CE0008283B582A4820E945216C801A6960FB69E
:103CF000F894DEBF0FBECDBFDF91CF911F910F9122
:103D0000FF90EF90DF90CF90BF90AF909F908F90FB
:103D10007F906F905F904F903F902F9008958FEF1E
:103D20009FEF08952F923F924F925F926F927F92F2
:103D30008F929F92AF92BF92CF92DF92EF92FF92BB
:103D40000F931F93CF93DF935C016B014A0129010D
:103D50003801170181E090E00E94C20FC0E0D0E07E
:103D60007601850109C0F80181918F010E94B70F8A
:103D7000F70181937F012196C815D905A4F3C0E00E
:103D8000D0E07301820109C0F80181918F010E9486
:103D9000B70FF70181937F012196C215D305A4F3D4
:103DA0000E949F0F80E090E0DF91CF911F910F91D3
:103DB000FF90EF90DF90CF90BF90AF909F908F904B
:103DC0007F906F905F904F903F902F900895EF926B
:103DD000FF920F931F93CF93DF93CDB7DEB7229758
:103DE0000FB6F894DEBF0FBECDBF87ED89838FEF8E
:103DF0008A83EE24FF2400E010E020E030E042E07F
:103E000050E0CE010196BC010E94921E892B19F050
:103E10008FEF90E002C08A81992722960FB6F8941E
:103E2000DEBF0FBECDBFDF91CF911F910F91FF90ED
:103E3000EF9008950F931F930E94E71E0E94E71EC4
:103E4000082F60E070E020913604309137040EC0F6
:103E50006F5F7F4F808580239185891739F48AE0D1
:103E6000189F900111242C583D4F18C0162F462F33
:103E70005527FA01EE0FFF1FCA01A3E0880F991F13
:103E8000AA95E1F7E80FF91FEC58FD4F8081918169
:103E9000A281B3810097A105B105D1F63093370413
:103EA00020933604CA011F910F910895EF92FF925B
:103EB0000F931F93CF93DF937B018C01EA0119C00D
:103EC000209731F461E070E080E090E00E948E2B5A
:103ED0000894E108F108010911098FEFE8168FEF46
:103EE000F8068FEF08078FEF180719F48FEF9FEF91
:103EF00006C00E94E71E87FFE3CF80E090E0DF91DD
:103F0000CF911F910F91FF90EF9008955F926F9264
:103F10007F928F929F92AF92BF92CF92DF92EF9259
:103F2000FF920F931F93CF93DF93582E4A015B01AB
:103F3000E90138018701293031051CF08FEF9FEF2F
:103F400023C0A90160E070E088E394E00E942F475D
:103F50005092380481149104A104B10469F0C501A0
:103F6000AA27BB2780933904BB27AB2D9A2D892D17
:103F700080933A0480923B0476019301AE0168E39A
:103F800074E0CB010E94921EDF91CF911F910F919F
:103F9000FF90EF90DF90CF90BF90AF909F908F9069
:103FA0007F906F905F9008958F929F92AF92BF9293
:103FB000CF92DF92EF92FF920F931F93CF93DF93F5
:103FC0004B015C018A016901C9010E941B43EC019C
:103FD000009719F40FEF1FEF36C07C0124E030E0AA
:103FE00040E050E060E070E084E80E94861F892B8A
:103FF00029F5E0913604F0913704068004C0880C5E
:10400000991CAA1CBB1C0A94D2F7CC24DD24EE24F4
:10401000FF2400E010E024E030E0B501A40183E8D3
:104020000E94861F892B51F441E050E068EE73E056
:1040300080E090E00E94561F8C0102C00FEF1FEF3E
:10404000CE010E941843C801DF91CF911F910F91BB
:10405000FF90EF90DF90CF90BF90AF909F908F90A8
:104060000895CF92DF92EF92FF920F931F93E0910A
:104070003604F0913704068004C0660F771F881F4E
:10408000991F0A94D2F769017A018A0128E030E089
:10409000AB01BC0188EE0E94861F1F910F91FF901B
:1040A000EF90DF90CF900895CF92DF92EF92FF9242
:1040B0000F931F93AA27BB27CC24DD24EE24FF24D3
:1040C00000E010E024E030E0AC01BD0181E80E9496
:1040D000861F1F910F91FF90EF90DF90CF90089572
:1040E00060957095809590952091400430914104A1
:1040F00040914204509143042623372348235923F7
:10410000209340043093410440934204509343046D
:1041100080E090E00895AF92BF92CF92DF92EF924D
:10412000FF920F931F93CF93DF93CDB7DEB7229704
:104130000FB6F894DEBF0FBECDBF9B015A01492FC9
:10414000552749838A83CC24DD247601850142E00A
:1041500050E0BE016F5F7F4F87E50E94823D8A1568
:104160009B0519F480E090E002C08FEF9FEF22964C
:104170000FB6F894DEBF0FBECDBFDF91CF911F9178
:104180000F91FF90EF90DF90CF90BF90AF90089588
:10419000AF92BF92CF92DF92EF92FF920F931F9355
:1041A000CF93DF93CDB7DEB722970FB6F894DEBF7B
:1041B0000FBECDBF9B015A0119828A83CC24DD2416
:1041C00076018A0142E050E0BE016F5F7F4F8FE6CB
:1041D0000E94823D8A159B0519F480E090E002C0A0
:1041E0008FEF9FEF22960FB6F894DEBF0FBECDBFC4
:1041F000DF91CF911F910F91FF90EF90DF90CF90C3
:10420000BF90AF9008950F931F93CF93DF93CDB7D7
:10421000DEB721970FB6F894DEBF0FBECDBF8C017D
:1042200041E050E0BE016F5F7F4F8FE30E94C820E6
:10423000892BE9F489819927AA27BB27209140047B
:10424000309141044091420450914304822B932BBE
:10425000A42BB52B8093400490934104A093420477
:10426000B0934304F80180839183A283B383809148
:1042700040049091410421960FB6F894DEBF0FBE22
:10428000CDBFDF91CF911F910F910895CF93DF9311
:10429000CDB7DEB724970FB6F894DEBF0FBECDBF03
:1042A00080E00E947E3C009721F4CE0101960E949E
:1042B000032124960FB6F894DEBF0FBECDBFDF9169
:1042C000CF910895EF92FF920F931F93CF93DF93B7
:1042D000CDB7DEB728970FB6F894DEBF0FBECDBFBF
:1042E0008C0148E050E0BE016F5F7F4F80E30E9489
:1042F000C8207C01892B09F073C02981822F829507
:104300008F706AE0869FC00111242F70820F911D6B
:10431000D8018D939C932A81822F82958F70869FDE
:10432000C00111242F70820F911DF80193838283A5
:104330002B813327C9018F739070B4E095958795D1
:10434000BA95E1F7AC01A3E0440F551FAA95E1F738
:10435000880F991F840F951F2F703070820F931F45
:10436000958384832C81822F82958F70869FC001D4
:1043700011242F70820F911D978386832D81822FA8
:1043800082958F70869FC00111242F70820F911D1E
:104390000197918780878E81282F22952F70269FE5
:1043A000A001112499278F7090708C599F4F480F4E
:1043B000591F538742872885822F82958F70869F49
:1043C000C00111242F70820F911D4A9724F04C597F
:1043D0005F4F538742878F819927F801958784879C
:1043E000C70128960FB6F894DEBF0FBECDBFDF9190
:1043F000CF911F910F91FF90EF900895AF92BF92D0
:10440000CF92DF92EF92FF920F931F93CF93DF93A0
:10441000CDB7DEB723970FB6F894DEBF0FBECDBF82
:1044200019822FE32A835E010894A11CB11C892BF9
:10443000A1F082E08B83CC24DD24760100E010E043
:1044400020E030E043E050E0B5018FE60E94823D7D
:10445000009789F486E08B8306C01B82CC24DD2480
:10446000760100E010E020E030E043E050E0B501EC
:104470008FE60E94823D23960FB6F894DEBF0FBEF2
:10448000CDBFDF91CF911F910F91FF90EF90DF9003
:10449000CF90BF90AF900895AF92BF92CF92DF922E
:1044A000EF92FF920F931F93CF93DF93CDB7DEB7B9
:1044B00021970FB6F894DEBF0FBECDBF13E1A12E3A
:1044C000B12C0FC061E070E080E090E00E948E2B84
:1044D0000894A108B108A114B10419F48FEF9FEF5B
:1044E00014C0CC24DD24760101E010E09E012F5F92
:1044F0003F4F40E050E060E070E087E50E94823D81
:104500008F5F9F4FF9F280E090E021960FB6F8940C
:10451000DEBF0FBECDBFDF91CF911F910F91FF90F6
:10452000EF90DF90CF90BF90AF9008952F923F9281
:104530004F925F926F927F928F929F92AF92BF92B3
:10454000CF92DF92EF92FF920F931F93CF93DF935F
:104550003C014A012B0100E010E046C0C3018F730B
:10456000907020E430E0281B390B540128153905E0
:1045700008F4590182E0282E312C2A0C3B1CC10181
:104580000E941B43EC01892BA1F1872D9927888379
:104590006982A501B201CE0102960E94264781E000
:1045A00090E00E94FE218C01892B31F5CC24DD2482
:1045B000760100E010E020E030E0A101BE0187E5D7
:1045C0000E94823D8C01CE010E9418430115110505
:1045D000B1F40E944C228C01892B89F48A189B0823
:1045E0006A0C7B1C4A0C5B1C8114910409F0B6CF49
:1045F00006C00FEF1FEF03C0CE010E94184380E0FA
:1046000090E00E94FE21C801DF91CF911F910F9190
:10461000FF90EF90DF90CF90BF90AF909F908F90E2
:104620007F906F905F904F903F902F9008958F9262
:104630009F92AF92BF92CF92DF92EF92FF920F9331
:104640001F93CF93DF934C015B01EA0181E090E07F
:104650000E94FE218C01892BC1F4CC24DD2476013B
:1046600000E010E020E030E0AE01B5018FE60E94EE
:10467000823D8C01892B29F4892819F00E944C2253
:104680008C0180E090E00E94FE21C801DF91CF9173
:104690001F910F91FF90EF90DF90CF90BF90AF9060
:1046A0009F908F900895EF92FF920F931F93CF9357
:1046B000DF93CDB7DEB72A970FB6F894DEBF0FBEF3
:1046C000CDBF8B017A012AE0FE01319611922A9525
:1046D000E9F723E0880F991F2A95E1F78A8361158E
:1046E000710509F47AC040FF12C0FB01408151817D
:1046F000842F6AE00E947047282F2295207FCA01EC
:104700006AE070E00E949047280F20682B83E1FE4A
:1047100012C0F80142815381842F6AE00E947047E1
:10472000282F2295207FCA016AE070E00E949047FE
:10473000280F20682C83E2FE12C0F80144815581C5
:10474000842F6AE00E947047282F2295207FCA019B
:104750006AE070E00E949047280F20682D83E3FEF6
:1047600012C0F80146815781842F6AE00E94704789
:10477000282F2295207FCA016AE070E00E949047AE
:10478000280F20682E83E4FE14C0F801408551856F
:10479000842F8F5F6AE00E947047282F2295207F28
:1047A000CA0101966AE070E00E949047280F2068D5
:1047B0002F83E7FE12C0F80144855585842F6AE0F7
:1047C0000E947047282F2295207FCA016AE070E07E
:1047D0000E949047280F206829874AE050E0BE01D8
:1047E0006F5F7F4F81E090E00E9417232A960FB6FB
:1047F000F894DEBF0FBECDBFDF91CF911F910F9117
:10480000FF90EF900895EF92FF920F931F93CF9335
:10481000DF93CDB7DEB728970FB6F894DEBF0FBE93
:10482000CDBF7B018A01FA011182108292E1FB0166
:1048300011929A95E9F748E050E0BE016F5F7F4F13
:10484000880F880F880F0E94C820BC01892B09F0AF
:104850009FC0298127FF20C0F8018081918181605C
:10486000918380833327C9018F779070F4E0959509
:104870008795FA95E1F7AC01E3E0440F551FEA95FF
:10488000E1F7880F991F840F951F2F703070820FEA
:10489000931FF701918380833A8137FF13C0F8019A
:1048A00080819181826091838083832F82958F7034
:1048B0002AE0829FC00111243F70830F911DF701F0
:1048C000938382832B8127FF20C0F801808191810F
:1048D0008460918380833327C9018F779070A4E02F
:1048E00095958795AA95E1F7AC01F3E0440F551F24
:1048F000FA95E1F7880F991F840F951F2F7030707C
:10490000820F931FF701958384833C8137FF13C087
:10491000F80180819181886091838083832F8295C3
:104920008F702AE0829FC00111243F70830F911D78
:10493000F701978386833D8137FF14C0F80180819A
:104940009181806191838083832F82958F702AE08B
:10495000829FC00111243F70830F911D0197F701C1
:10496000918780873F8137FF13C0F8018081918153
:10497000806891838083832F82958F702AE0829F45
:10498000C00111243F70830F911DF7019587848723
:10499000CB0128960FB6F894DEBF0FBECDBFDF91D6
:1049A000CF911F910F91FF90EF9008950F931F9358
:1049B000CF93DF93CDB7DEB72A970FB6F894DEBF5B
:1049C0000FBECDBF8C018AE0FE01319611928A950F
:1049D000E9F70115110509F481C080E38A83F80124
:1049E00040815181842F6AE00E947047282F2295D0
:1049F000207FCA016AE070E00E949047280F2B8355
:104A000042815381842F6AE00E947047282F2295AB
:104A1000207FCA016AE070E00E949047280F2C8333
:104A200044815581842F6AE00E947047282F229587
:104A3000207FCA016AE070E00E949047280F20683A
:104A40002D8346815781842F6AE00E947047282F6A
:104A50002295207FCA016AE070E00E949047280FEB
:104A60002E8340855185842F8F5F6AE00E947047B6
:104A7000282F2295207FCA0101966AE070E00E94EB
:104A80009047280F2F8342855385443651059CF06B
:104A9000842F84566AE00E947047282F2295207F39
:104AA000CA01845690406AE070E00E949047280F47
:104AB000288780E20FC0842F6AE00E947047282F69
:104AC0002295207FCA016AE070E00E949047280F7B
:104AD000288789E18A87F801848589874AE050E040
:104AE000BE016F5F7F4F80E090E00E9417232A96FF
:104AF0000FB6F894DEBF0FBECDBFDF91CF911F91EF
:104B00000F9108958093D70208950E940C2D20E004
:104B100033E040E050E06BE075E082ED92E00E940F
:104B200080308EEF0E94B2290E94362A0E947D2991
:104B30002091D7022F3FC1F393B783B7817F822B98
:104B400083BF83B7816083BF889583B78E7F83BF20
:104B500083B7817F9E70892B83BFE6CF0F931F930E
:104B6000CF93DF930091450410914604801791077D
:104B700030F080E090E060C0EF01DB012FC0AC01BD
:104B80004A5F5F4F4430510510F444E050E0E0913B
:104B9000E306F091E40663EE76E0C0E0D0E0A0E04A
:104BA000B0E017C0208131812417350760F0241749
:104BB000350711F3209729F0888199812817390743
:104BC00010F4EF01DB01BF016E5F7F4F0280F381C4
:104BD000E02D309739F7CE01209771F12881398186
:104BE000CA010A966A817B818217930770F4FE01DD
:104BF000E40FF51F241B350B3183208373836283FD
:104C000059834883ED93FC9302C06D937C93E881B4
:104C1000F9810E1B1F0B1093460400934504EC0F03
:104C2000FD1F34978FEE9EEBADEABEED808391833E
:104C3000A283B383CE010296DF91CF911F910F9192
:104C40000895CF93DF93DC0112976D917C911197BA
:104C5000E091E306F091E406C3EED6E03AC040816D
:104C60005181CF01840F951F8A179B07C1F49A01C8
:104C7000260F371F3183208382819381DF01A20FAA
:104C8000B31FA817B90791F58D919C911197280F23
:104C9000391F31832083ED018A819B8125C0AE17A6
:104CA000BF0778F4B983A8832D913C911197CD016A
:104CB000820F931F8E179F0779F0ED01FB83EA8324
:104CC00015C0A817B90728F1EF0122960280F381D9
:104CD000E02D309721F617C0240F351F11963C9315
:104CE0002E9382819381FD01938382838091450479
:104CF00090914604860F971F909346048093450435
:104D000080E090E008C0FD0113821282B983A8837D
:104D1000EDCF8FEF9FEFDF91CF910895FC0161936D
:104D20007193CF010E9421260895809145049091AE
:104D3000460408950F931F93CF93DF938C010E9435
:104D4000AE25EC01009729F0A80160E070E00E9418
:104D50002F47CE01DF91CF911F910F910895809140
:104D6000500490915104909355048093540490936F
:104D7000580480935704109256041092590422E06C
:104D80002093FFFF21E02093470410924C041092DF
:104D90004D0410924E0410924F04089580E090E864
:104DA000909351048093500480E090EC90935304CE
:104DB0008093520480E090E8A7E0B0E0809348043C
:104DC00090934904A0934A04B0934B040E94AF26E9
:104DD0000895FC0180914704882389F4909156043A
:104DE00080915904981759F4209154043091550436
:104DF00080915704909158048217930740F4809152
:104E00005204909153042091540430915504821B14
:104E1000930B91838083809156048E5F8093FFFF74
:104E200080915404909155040895FC0180914704A9
:104E3000882319F01182108227C090915604809126
:104E40005904981759F420915704309158048091CF
:104E50005404909155042817390768F08091520442
:104E6000909153042091570430915804821B930B66
:104E70009183808309C0821B930B91838083892B4C
:104E800019F481E080934704809159048E5F8093E8
:104E9000FFFF80915704909158040895009709F4FA
:104EA00040C06091540470915504680F791F70934D
:104EB000550460935404109247049C0144275527DD
:104EC00080914C0490914D04A0914E04B0914F04F8
:104ED000820F931FA41FB51F80934C0490934D0421
:104EE000A0934E04B0934F048091520490915304C8
:104EF00068177907B1F48091500490915104909310
:104F0000550480935404809156048F5F8093560417
:104F10008E3114F010925604809156048E5F809367
:104F2000FFFF80915404909155040895009709F46F
:104F300052C06091570470915804680F791F7093A4
:104F40005804609357049C014427552780914C04D2
:104F500090914D04A0914E04B0914F04821B930B8D
:104F6000A40BB50B80934C0490934D04A0934E0476
:104F7000B0934F04809152049091530468177907BD
:104F8000B1F480915004909151049093580480930F
:104F90005704809159048F5F809359048E3114F027
:104FA00010925904809159048E5F8093FFFF2091E5
:104FB0005704309158048091540490915504281757
:104FC000390749F49091590480915604981719F4BF
:104FD00081E080934704809157049091580408958C
:104FE0000097D9F16091540470915504680F791FAE
:104FF00070935504609354049C0144275527809175
:105000004C0490914D04A0914E04B0914F04820F36
:10501000931FA41FB51F80934C0490934D04A0933D
:105020004E04B0934F041092470480915204909123
:1050300053046817790789F48091500490915104C2
:105040009093550480935404809156048F5F80930D
:1050500056048E3114F010925604809159048E5FDC
:105060008093FFFF0895009709F44DC060915704A5
:1050700070915804680F791F709358046093570417
:105080009C014427552780914C0490914D04A09198
:105090004E04B0914F04821B930BA40BB50B80936D
:1050A0004C0490934D04A0934E04B0934F04809110
:1050B0005204909153046817790789F48091500441
:1050C000909151049093580480935704809159040F
:1050D0008F5F809359048E3114F0109259042091FF
:1050E0005704309158048091540490915504281726
:1050F000390749F49091590480915604981719F48E
:1051000081E080934704809156048E5F8093FFFF77
:105110000895609148047091490480914A049091E7
:105120004B0420914C0430914D0440914E04509119
:105130004F04621B730B840B950B089560914C0414
:1051400070914D0480914E0490914F040895809188
:105150004C0490914D04A0914E04B0914F048050A6
:105160009044A040B04080934C0490934D04A09391
:105170004E04B0934F04809159048F5F809359047B
:105180008E3114F010925904809159048E5F8093EF
:10519000FFFF0895CF93DF93DC019B01EC01788F33
:1051A0006F8B1D821C820FB6F8940F92EB01E88181
:1051B000F9818FEFEF3FF80749F4ED018C819D8174
:1051C00001969D838C83E0E0F0E015C0309799F064
:1051D0000F900FBEED019A8908C09F012E5F3F4FCF
:1051E0000280F381E02D309719F082899817A8F793
:1051F0000FB6F8940F92ED01FB83EA83F901B183B6
:10520000A083EA81FB81309771F084819581892B9D
:1052100051F08C819D8124813581820F931F9D8364
:105220008C83158214820F900FBEDF91CF91089569
:10523000CF93DF939C01DB010FB6F8940F92ED91B1
:10524000FC9111970F900FBE8FEFEF3FF80731F5EC
:1052500027C082819381E217F307E9F40FB6F8942F
:105260000F9211969C938E9384819581892B59F08E
:10527000A281B381109729F084819581ED019D83EE
:105280008C83158214820F900FBEF9011382128253
:10529000108E178A05C0DF011296FC013097C9F6FF
:1052A000DF91CF910895FB01168A158A82E08787E6
:1052B00067EE76E0CF010E94CA2808950F931F93EE
:1052C000CF93DF938C01C091E506D091E6060CC028
:1052D000B801CE0106960E944147892B11F4CE01F8
:1052E00007C00990D881C02D209791F780E090E009
:1052F000DF91CF911F910F910895E091EB06F0910E
:10530000EC06309741F0838994890E9421261092FF
:10531000EC061092EB060895CF93DF93C091E5065B
:10532000D091E6060E947D292091E9063091EA0697
:10533000E5EEF6E00AC088819981C217D30719F417
:105340009183808304C0FE01EC012097A1F7809136
:10535000E9069091EA069093EC068093EB06DF91C4
:10536000CF9108950F931F93182FE091E906F091C4
:10537000EA06028967EE76E0CF010E941829E091E3
:10538000E906F091EA06128B1F3F49F067EE76E0DE
:105390008091E9069091EA060E94CA2802C00E9404
:1053A0008C29E091E906F091EA068091E706909158
:1053B000E806E817F90719F481E0878709C082E059
:1053C00087870FB6F8940F920E9441300F900FBE5E
:1053D000802F99271F910F9108958FEF0E94B22976
:1053E0000895CF93DF93C091E506D091E60620C0E3
:1053F0000FB6F8940F928C819D810F900FBE892B70
:10540000A1F0EF89F88D0FB6F8940F928C819D81F1
:1054100001979D838C830F900FBE808191818F5F58
:105420009F4F19F0CF010E94942D0990D881C02D73
:105430002097F1F60E94802CE091E906F091EA06AF
:105440008091E7069091E806E817F90761F08785F3
:10545000813011F482E087870FB6F8940F920E9492
:1054600041300F900FBEDF91CF910895E091E90692
:10547000F091EA0682819381892B69F067EE76E0EC
:10548000CF010E94182967EE76E08091E90690919D
:10549000EA060E94CA280E94F12908958091F30625
:1054A0009091F406A091F506B091F6060196A11D23
:1054B000B11D8093F3069093F406A093F506B09384
:1054C000F60608959B01AC016091ED067091EE0621
:1054D0008091EF069091F0060E94514728EE33E04C
:1054E00040E050E00E94A34701C000002150310974
:1054F00041095109D0F708959927AA27BB27BC0174
:10550000CD0128EE33E040E050E00E9451470E9478
:10551000622A0895CF93DF93EC011B821A82E091F7
:10552000F106F091F2061AC0288539854A855B8517
:1055300080859185A285B385281739074A075B07BF
:1055400080F0281B390B4A0B5B0B288739874A8769
:105550005B87FB83EA830190F081E02D309721F790
:1055600018C0821B930BA40BB50B80879187A28771
:10557000B387F983E883D383C283EA81FB813097C1
:1055800019F0D183C08308C0D093F206C093F1060E
:1055900003C019821882F1CFDF91CF910895CF9384
:1055A000DF93FC01148215821682178215861486F9
:1055B00080859185A285B3850097A105B10561F12C
:1055C000A281B38180819181109719F08D939C9372
:1055D00004C09093F2068093F106C081D181209798
:1055E000A1F0828193819B838A8388859985AA858E
:1055F000BB852085318542855385820F931FA41F6B
:10560000B51F88879987AA87BB871086118612865F
:105610001386CF010E948A2ADF91CF9108950FB699
:10562000F8940F926091F3067091F4068091F5065C
:105630009091F6060F900FBE0895AF92BF92CF9251
:10564000DF92EF92FF920F93CF93DF936B017C0178
:10565000EA01590180E190E00E94AE25FC01892B0E
:1056600081F10FB6F8940F928091F3069091F406B1
:10567000A091F506B091F6060F900FBE8C0D9D1D02
:10568000AE1DBF1D20915A0430915B0440915C0413
:1056900050915D04821B930BA40BB50B80879187FF
:1056A000A287B38700FF05C0148215821682178275
:1056B00004C0C482D582E682F782D587C487B786C4
:1056C000A686CF01DF91CF910F91FF90EF90DF90F1
:1056D000CF90BF90AF9008950F93CF93DF930E9428
:1056E0001D2BEC01009711F00E948A2ACE01DF9158
:1056F000CF910F910895CF92DF92EF92FF920F9387
:105700006A0179010E9452319701A6010E946C2B17
:105710000F91FF90EF90DF90CF900895AF92BF92DE
:10572000CF92DF92EF92FF920F93CF93DF935B01C3
:105730006C016115710581059105D1F1C7EED6E0C7
:10574000BE018091E9069091EA060E941829E09135
:10575000E906F091EA0683E08787E090E906F09099
:10576000EA0601E0970143E559E2C601B5010E944E
:105770007B2BF701968B858B892B19F00E94F129E1
:1057800019C0E091E906F091EA06D08FC78B8091AD
:10579000E7069091E8069383828381E08787809172
:1057A000E9069091EA069093E8068093E70602C026
:1057B0000E94362ADF91CF910F91FF90EF90DF90FA
:1057C000CF90BF90AF9008952F923F924F925F92EB
:1057D0006F927F928F929F92AF92BF92CF92DF9201
:1057E000EF92FF920F931F93CF93DF93CDB7DEB766
:1057F00024970FB6F894DEBF0FBECDBF0FB6F89456
:105800000F92A090F306B090F406C090F506D090E9
:10581000F6060F900FBE0E9428319B01AC01C60115
:10582000B5010E94A34739014A010E9428311B019A
:105830002C010E94283169837A838B839C83C40165
:10584000B30128EE33E040E050E00E9451477B0175
:105850008C01C401B301A20191010E945147A61A13
:10586000B70AC80AD90AC601B50128EE33E040E0FC
:1058700050E00E94514729813A814B815C810E940E
:10588000A347E20EF31E041F151FC801B70124969B
:105890000FB6F894DEBF0FBECDBFDF91CF911F9141
:1058A0000F91FF90EF90DF90CF90BF90AF909F90BF
:1058B0008F907F906F905F904F903F902F900895C2
:1058C000EF92FF920F931F930FB6F8940F92E09010
:1058D000F306F090F4060091F5061091F6060F908D
:1058E0000FBE0E9428319B01AC01C801B7010E9484
:1058F000A347CA01B9011F910F91FF90EF9008953E
:10590000EF92FF920F931F93CF93DF930FB6F8940C
:105910000F922091F3063091F4064091F5065091D4
:10592000F6060F900FBE80915A0490915B04A091EF
:105930005C04B0915D0479018A01E81AF90A0A0B46
:105940001B0B20935A0430935B0440935C045093E8
:105950005D044FC088859985AA85BB85E816F90640
:105960000A071B07A0F48E199F09A00BB10B8887AB
:105970009987AA87BB870097A105B10521F0EE247E
:10598000FF24870136C0EE24FF24870108C0E81AEF
:10599000F90A0A0B1B0B188619861A861B86EC85DA
:1059A000FD85309721F06E857F85CE011995E091B8
:1059B000F106F091F2060190F081E02DF093F206ED
:1059C000E093F106309711F0138212828C819D8151
:1059D000AE81BF8188879987AA87BB870097A10579
:1059E000B10521F4CE010E94212603C0CE010E9400
:1059F0008A2AC091F106D091F206209731F0E11485
:105A0000F1040105110509F0A5CFDF91CF911F9198
:105A10000F91FF90EF9008958EE49AE20E942D314D
:105A2000809170008260809370000FB6F8940F929E
:105A30002091F3063091F4064091F5065091F60658
:105A40000F900FBE0FB6F8940F928091F3069091CD
:105A5000F406A091F506B091F6060F900FBE281738
:105A600039074A075B0771F30FB6F8940F9220913C
:105A7000F3063091F4064091F5065091F6060F902A
:105A80000FBE13C08091ED069091EE06A091EF0637
:105A9000B091F0060196A11DB11D8093ED06909383
:105AA000EE06A093EF06B093F0060FB6F8940F92AF
:105AB0008091F3069091F406A091F506B091F60658
:105AC0000F900FBE281739074A075B07D9F260917C
:105AD000ED067091EE068091EF069091F00627E6B4
